{
  "contractName": "DerivativeDex",
  "abi": [
    {
      "constant": true,
      "inputs": [
        {
          "name": "",
          "type": "uint256"
        }
      ],
      "name": "options",
      "outputs": [
        {
          "name": "",
          "type": "address"
        }
      ],
      "payable": false,
      "stateMutability": "view",
      "type": "function"
    },
    {
      "anonymous": false,
      "inputs": [
        {
          "indexed": true,
          "name": "_from",
          "type": "address"
        },
        {
          "indexed": true,
          "name": "_contract",
          "type": "address"
        }
      ],
      "name": "OptionCreated",
      "type": "event"
    },
    {
      "constant": false,
      "inputs": [
        {
          "name": "_premium",
          "type": "uint256"
        },
        {
          "name": "_otherContract",
          "type": "address"
        }
      ],
      "name": "createOption",
      "outputs": [],
      "payable": false,
      "stateMutability": "nonpayable",
      "type": "function"
    },
    {
      "constant": true,
      "inputs": [],
      "name": "getOptions",
      "outputs": [
        {
          "name": "",
          "type": "address[]"
        }
      ],
      "payable": false,
      "stateMutability": "view",
      "type": "function"
    }
  ],
  "bytecode": "0x608060405234801561001057600080fd5b50610dc4806100206000396000f3fe608060405234801561001057600080fd5b50600436106100415760003560e01c8063409e220514610046578063c97b1c67146100b4578063cc2ee19614610102575b600080fd5b6100726004803603602081101561005c57600080fd5b8101908080359060200190929190505050610161565b604051808273ffffffffffffffffffffffffffffffffffffffff1673ffffffffffffffffffffffffffffffffffffffff16815260200191505060405180910390f35b610100600480360360408110156100ca57600080fd5b8101908080359060200190929190803573ffffffffffffffffffffffffffffffffffffffff16906020019092919050505061019d565b005b61010a610302565b6040518080602001828103825283818151815260200191508051906020019060200280838360005b8381101561014d578082015181840152602081019050610132565b505050509050019250505060405180910390f35b6000818154811061016e57fe5b906000526020600020016000915054906101000a900473ffffffffffffffffffffffffffffffffffffffff1681565b60003383836040516101ae90610390565b808473ffffffffffffffffffffffffffffffffffffffff1673ffffffffffffffffffffffffffffffffffffffff1681526020018381526020018273ffffffffffffffffffffffffffffffffffffffff1673ffffffffffffffffffffffffffffffffffffffff1681526020019350505050604051809103906000f08015801561023a573d6000803e3d6000fd5b5090508073ffffffffffffffffffffffffffffffffffffffff163373ffffffffffffffffffffffffffffffffffffffff167fbfb6fe20509a93711e236e88c56666be96d2d9f508df251f39a8af0de09ca6c660405160405180910390a360008190806001815401808255809150509060018203906000526020600020016000909192909190916101000a81548173ffffffffffffffffffffffffffffffffffffffff021916908373ffffffffffffffffffffffffffffffffffffffff16021790555050505050565b6060600080548060200260200160405190810160405280929190818152602001828054801561038657602002820191906000526020600020905b8160009054906101000a900473ffffffffffffffffffffffffffffffffffffffff1673ffffffffffffffffffffffffffffffffffffffff168152602001906001019080831161033c575b5050505050905090565b6109fb8061039e8339019056fe608060405234801561001057600080fd5b506040516060806109fb8339810180604052606081101561003057600080fd5b81019080805190602001909291908051906020019092919080519060200190929190505050826000806101000a81548173ffffffffffffffffffffffffffffffffffffffff021916908373ffffffffffffffffffffffffffffffffffffffff1602179055508160028190555080600160006101000a81548173ffffffffffffffffffffffffffffffffffffffff021916908373ffffffffffffffffffffffffffffffffffffffff16021790555050505061090c806100ef6000396000f3fe6080604052600436106100555760003560e01c806333187dbb1461005a5780634cfd1ba5146100b1578063620924d4146100bb5780639e38afc5146100f6578063c974402914610131578063dc3dfc311461015c575b600080fd5b34801561006657600080fd5b5061006f610197565b604051808273ffffffffffffffffffffffffffffffffffffffff1673ffffffffffffffffffffffffffffffffffffffff16815260200191505060405180910390f35b6100b96101c1565b005b3480156100c757600080fd5b506100f4600480360360208110156100de57600080fd5b81019080803590602001909291905050506102ac565b005b34801561010257600080fd5b5061012f6004803603602081101561011957600080fd5b81019080803590602001909291905050506104b9565b005b34801561013d57600080fd5b50610146610692565b6040518082815260200191505060405180910390f35b34801561016857600080fd5b506101956004803603602081101561017f57600080fd5b810190808035906020019092919050505061069c565b005b6000600160009054906101000a900473ffffffffffffffffffffffffffffffffffffffff16905090565b600033905061021834600360008473ffffffffffffffffffffffffffffffffffffffff1673ffffffffffffffffffffffffffffffffffffffff168152602001908152602001600020546107cf90919063ffffffff16565b600360008373ffffffffffffffffffffffffffffffffffffffff1673ffffffffffffffffffffffffffffffffffffffff168152602001908152602001600020819055508073ffffffffffffffffffffffffffffffffffffffff167f0931b9170c72d22398c29d23820b7b4ff5dd64286656614f06a8ed6ec9a5df9c346040518082815260200191505060405180910390a250565b6000339050600160009054906101000a900473ffffffffffffffffffffffffffffffffffffffff1673ffffffffffffffffffffffffffffffffffffffff166323b872dd8230856040518463ffffffff1660e01b8152600401808473ffffffffffffffffffffffffffffffffffffffff1673ffffffffffffffffffffffffffffffffffffffff1681526020018373ffffffffffffffffffffffffffffffffffffffff1673ffffffffffffffffffffffffffffffffffffffff1681526020018281526020019350505050602060405180830381600087803b15801561038e57600080fd5b505af11580156103a2573d6000803e3d6000fd5b505050506040513d60208110156103b857600080fd5b81019080805190602001909291905050506103d257600080fd5b61042482600460008473ffffffffffffffffffffffffffffffffffffffff1673ffffffffffffffffffffffffffffffffffffffff168152602001908152602001600020546107cf90919063ffffffff16565b600460008373ffffffffffffffffffffffffffffffffffffffff1673ffffffffffffffffffffffffffffffffffffffff168152602001908152602001600020819055508073ffffffffffffffffffffffffffffffffffffffff167fe6162dd8ab3657fb79f2f1d8a0ade6ac620eadef12522853f75c794a48c03cbf836040518082815260200191505060405180910390a25050565b600033905061051082600460008473ffffffffffffffffffffffffffffffffffffffff1673ffffffffffffffffffffffffffffffffffffffff1681526020019081526020016000205461085790919063ffffffff16565b600460008373ffffffffffffffffffffffffffffffffffffffff1673ffffffffffffffffffffffffffffffffffffffff16815260200190815260200160002081905550600160009054906101000a900473ffffffffffffffffffffffffffffffffffffffff1673ffffffffffffffffffffffffffffffffffffffff1663a9059cbb82846040518363ffffffff1660e01b8152600401808373ffffffffffffffffffffffffffffffffffffffff1673ffffffffffffffffffffffffffffffffffffffff16815260200182815260200192505050602060405180830381600087803b1580156105fc57600080fd5b505af1158015610610573d6000803e3d6000fd5b505050506040513d602081101561062657600080fd5b810190808051906020019092919050505061064057600080fd5b8073ffffffffffffffffffffffffffffffffffffffff167f894bd2f0739998054d6d4c9740e1607d41c7911caa57059ee96e9df70c606312836040518082815260200191505060405180910390a25050565b6000600254905090565b60003390506106f382600360008473ffffffffffffffffffffffffffffffffffffffff1673ffffffffffffffffffffffffffffffffffffffff1681526020019081526020016000205461085790919063ffffffff16565b600360008373ffffffffffffffffffffffffffffffffffffffff1673ffffffffffffffffffffffffffffffffffffffff168152602001908152602001600020819055508073ffffffffffffffffffffffffffffffffffffffff166108fc839081150290604051600060405180830381858888f1935050505015801561077c573d6000803e3d6000fd5b508073ffffffffffffffffffffffffffffffffffffffff167fa8841823f7591414a80deddb48af504373043ab5959ceddf527c2215d62cb29b836040518082815260200191505060405180910390a25050565b60008082840190508381101561084d576040517f08c379a000000000000000000000000000000000000000000000000000000000815260040180806020018281038252601b8152602001807f536166654d6174683a206164646974696f6e206f766572666c6f77000000000081525060200191505060405180910390fd5b8091505092915050565b6000828211156108cf576040517f08c379a000000000000000000000000000000000000000000000000000000000815260040180806020018281038252601e8152602001807f536166654d6174683a207375627472616374696f6e206f766572666c6f77000081525060200191505060405180910390fd5b60008284039050809150509291505056fea165627a7a72305820948f5c99686b7412c4a4bd75d92a5a7de7a9c60a5168a2191d6f4f9e03ac017e0029a165627a7a7230582086e42dfabcef05981b49f27defbcf49199564400b8215aec1f4d43d9d017ae970029",
  "source": "pragma solidity >=0.4.21 <0.6.0;\n\nimport './Option.sol';\n\ncontract DerivativeDex {\n    event OptionCreated(\n        address indexed _from,\n        address indexed _contract\n    );\n\n    Option[] public options;\n\n    function createOption(uint _premium, address _otherContract) public {\n        Option newOption = new Option(msg.sender, _premium, _otherContract);\n        emit OptionCreated(msg.sender, address(newOption));\n        options.push(newOption);\n    }\n\n    function getOptions() public view returns (Option[] memory) {\n        return options;\n    }\n}\n",
  "sourcePath": "/Users/roryoreilly/Desktop/programming/learning/eth-derivative-exchange/src/ethereum/contracts/DerivativeDex.sol",
  "compiler": {
    "name": "solc",
    "version": "0.5.8+commit.23d335f2.Emscripten.clang"
  },
  "schemaVersion": "3.0.11",
  "updatedAt": "2019-09-10T05:01:11.018Z",
  "devdoc": {
    "methods": {}
  },
  "userdoc": {
    "methods": {}
  }
}