{
  "contractName": "Option",
  "abi": [
    {
      "inputs": [
        {
          "name": "_creator",
          "type": "address"
        },
        {
          "name": "_premium",
          "type": "uint256"
        },
        {
          "name": "_otherContract",
          "type": "address"
        }
      ],
      "payable": false,
      "stateMutability": "nonpayable",
      "type": "constructor"
    },
    {
      "anonymous": false,
      "inputs": [
        {
          "indexed": true,
          "name": "payee",
          "type": "address"
        },
        {
          "indexed": false,
          "name": "weiAmount",
          "type": "uint256"
        }
      ],
      "name": "DepositedEth",
      "type": "event"
    },
    {
      "anonymous": false,
      "inputs": [
        {
          "indexed": true,
          "name": "payee",
          "type": "address"
        },
        {
          "indexed": false,
          "name": "weiAmount",
          "type": "uint256"
        }
      ],
      "name": "WithdrawnEth",
      "type": "event"
    },
    {
      "anonymous": false,
      "inputs": [
        {
          "indexed": true,
          "name": "payee",
          "type": "address"
        },
        {
          "indexed": false,
          "name": "weiAmount",
          "type": "uint256"
        }
      ],
      "name": "DepositedDai",
      "type": "event"
    },
    {
      "anonymous": false,
      "inputs": [
        {
          "indexed": true,
          "name": "payee",
          "type": "address"
        },
        {
          "indexed": false,
          "name": "weiAmount",
          "type": "uint256"
        }
      ],
      "name": "WithdrawnDai",
      "type": "event"
    },
    {
      "constant": false,
      "inputs": [],
      "name": "buyEth",
      "outputs": [],
      "payable": true,
      "stateMutability": "payable",
      "type": "function"
    },
    {
      "constant": false,
      "inputs": [
        {
          "name": "amount",
          "type": "uint256"
        }
      ],
      "name": "sellEth",
      "outputs": [],
      "payable": false,
      "stateMutability": "nonpayable",
      "type": "function"
    },
    {
      "constant": false,
      "inputs": [
        {
          "name": "amount",
          "type": "uint256"
        }
      ],
      "name": "buyDai",
      "outputs": [],
      "payable": false,
      "stateMutability": "nonpayable",
      "type": "function"
    },
    {
      "constant": false,
      "inputs": [
        {
          "name": "amount",
          "type": "uint256"
        }
      ],
      "name": "sellDai",
      "outputs": [],
      "payable": false,
      "stateMutability": "nonpayable",
      "type": "function"
    },
    {
      "constant": false,
      "inputs": [],
      "name": "getDaiAddress",
      "outputs": [
        {
          "name": "",
          "type": "address"
        }
      ],
      "payable": false,
      "stateMutability": "nonpayable",
      "type": "function"
    },
    {
      "constant": false,
      "inputs": [],
      "name": "getPremium",
      "outputs": [
        {
          "name": "",
          "type": "uint256"
        }
      ],
      "payable": false,
      "stateMutability": "nonpayable",
      "type": "function"
    }
  ],
  "bytecode": "0x608060405234801561001057600080fd5b506040516060806109fb8339810180604052606081101561003057600080fd5b81019080805190602001909291908051906020019092919080519060200190929190505050826000806101000a81548173ffffffffffffffffffffffffffffffffffffffff021916908373ffffffffffffffffffffffffffffffffffffffff1602179055508160028190555080600160006101000a81548173ffffffffffffffffffffffffffffffffffffffff021916908373ffffffffffffffffffffffffffffffffffffffff16021790555050505061090c806100ef6000396000f3fe6080604052600436106100555760003560e01c806333187dbb1461005a5780634cfd1ba5146100b1578063620924d4146100bb5780639e38afc5146100f6578063c974402914610131578063dc3dfc311461015c575b600080fd5b34801561006657600080fd5b5061006f610197565b604051808273ffffffffffffffffffffffffffffffffffffffff1673ffffffffffffffffffffffffffffffffffffffff16815260200191505060405180910390f35b6100b96101c1565b005b3480156100c757600080fd5b506100f4600480360360208110156100de57600080fd5b81019080803590602001909291905050506102ac565b005b34801561010257600080fd5b5061012f6004803603602081101561011957600080fd5b81019080803590602001909291905050506104b9565b005b34801561013d57600080fd5b50610146610692565b6040518082815260200191505060405180910390f35b34801561016857600080fd5b506101956004803603602081101561017f57600080fd5b810190808035906020019092919050505061069c565b005b6000600160009054906101000a900473ffffffffffffffffffffffffffffffffffffffff16905090565b600033905061021834600360008473ffffffffffffffffffffffffffffffffffffffff1673ffffffffffffffffffffffffffffffffffffffff168152602001908152602001600020546107cf90919063ffffffff16565b600360008373ffffffffffffffffffffffffffffffffffffffff1673ffffffffffffffffffffffffffffffffffffffff168152602001908152602001600020819055508073ffffffffffffffffffffffffffffffffffffffff167f0931b9170c72d22398c29d23820b7b4ff5dd64286656614f06a8ed6ec9a5df9c346040518082815260200191505060405180910390a250565b6000339050600160009054906101000a900473ffffffffffffffffffffffffffffffffffffffff1673ffffffffffffffffffffffffffffffffffffffff166323b872dd3330856040518463ffffffff1660e01b8152600401808473ffffffffffffffffffffffffffffffffffffffff1673ffffffffffffffffffffffffffffffffffffffff1681526020018373ffffffffffffffffffffffffffffffffffffffff1673ffffffffffffffffffffffffffffffffffffffff1681526020018281526020019350505050602060405180830381600087803b15801561038e57600080fd5b505af11580156103a2573d6000803e3d6000fd5b505050506040513d60208110156103b857600080fd5b81019080805190602001909291905050506103d257600080fd5b61042482600460008473ffffffffffffffffffffffffffffffffffffffff1673ffffffffffffffffffffffffffffffffffffffff168152602001908152602001600020546107cf90919063ffffffff16565b600460008373ffffffffffffffffffffffffffffffffffffffff1673ffffffffffffffffffffffffffffffffffffffff168152602001908152602001600020819055508073ffffffffffffffffffffffffffffffffffffffff167fe6162dd8ab3657fb79f2f1d8a0ade6ac620eadef12522853f75c794a48c03cbf836040518082815260200191505060405180910390a25050565b600033905061051082600460008473ffffffffffffffffffffffffffffffffffffffff1673ffffffffffffffffffffffffffffffffffffffff1681526020019081526020016000205461085790919063ffffffff16565b600460008373ffffffffffffffffffffffffffffffffffffffff1673ffffffffffffffffffffffffffffffffffffffff16815260200190815260200160002081905550600160009054906101000a900473ffffffffffffffffffffffffffffffffffffffff1673ffffffffffffffffffffffffffffffffffffffff1663a9059cbb82846040518363ffffffff1660e01b8152600401808373ffffffffffffffffffffffffffffffffffffffff1673ffffffffffffffffffffffffffffffffffffffff16815260200182815260200192505050602060405180830381600087803b1580156105fc57600080fd5b505af1158015610610573d6000803e3d6000fd5b505050506040513d602081101561062657600080fd5b810190808051906020019092919050505061064057600080fd5b8073ffffffffffffffffffffffffffffffffffffffff167f894bd2f0739998054d6d4c9740e1607d41c7911caa57059ee96e9df70c606312836040518082815260200191505060405180910390a25050565b6000600254905090565b60003390506106f382600360008473ffffffffffffffffffffffffffffffffffffffff1673ffffffffffffffffffffffffffffffffffffffff1681526020019081526020016000205461085790919063ffffffff16565b600360008373ffffffffffffffffffffffffffffffffffffffff1673ffffffffffffffffffffffffffffffffffffffff168152602001908152602001600020819055508073ffffffffffffffffffffffffffffffffffffffff166108fc839081150290604051600060405180830381858888f1935050505015801561077c573d6000803e3d6000fd5b508073ffffffffffffffffffffffffffffffffffffffff167fa8841823f7591414a80deddb48af504373043ab5959ceddf527c2215d62cb29b836040518082815260200191505060405180910390a25050565b60008082840190508381101561084d576040517f08c379a000000000000000000000000000000000000000000000000000000000815260040180806020018281038252601b8152602001807f536166654d6174683a206164646974696f6e206f766572666c6f77000000000081525060200191505060405180910390fd5b8091505092915050565b6000828211156108cf576040517f08c379a000000000000000000000000000000000000000000000000000000000815260040180806020018281038252601e8152602001807f536166654d6174683a207375627472616374696f6e206f766572666c6f77000081525060200191505060405180910390fd5b60008284039050809150509291505056fea165627a7a72305820fe52621a5abc07fc6b88b199e88d2c3853bd267b5b1480f41f6037a07812929c0029",
  "source": "pragma solidity >=0.4.21 <0.6.0;\n\nimport 'openzeppelin-solidity/contracts/math/SafeMath.sol';\nimport 'openzeppelin-solidity/contracts/token/ERC20/IERC20.sol';\n\ncontract Option {\n  using SafeMath for uint256;\n\n    event DepositedEth(address indexed payee, uint256 weiAmount);\n    event WithdrawnEth(address indexed payee, uint256 weiAmount);\n    event DepositedDai(address indexed payee, uint256 weiAmount);\n    event WithdrawnDai(address indexed payee, uint256 weiAmount);\n\n  address private creator;\n  IERC20 private daiAddress;\n  uint private premium;\n  mapping(address => uint) balancesEth;\n  mapping(address => uint) balancesDai;\n\n  constructor(address _creator, uint _premium, address _otherContract) public {\n    creator = _creator;\n    premium = _premium;\n    daiAddress = IERC20(_otherContract);\n  }\n\n  function buyEth() public payable{\n      address user = msg.sender;\n      balancesEth[user] = balancesEth[user].add(msg.value);\n      emit DepositedEth(user, msg.value);\n  }\n\n  function sellEth(uint256 amount) public {\n      address payable user = msg.sender;\n      balancesEth[user] = balancesEth[user].sub(amount);\n      user.transfer(amount);\n      emit WithdrawnEth(user, amount);\n  }\n\n  function buyDai(uint256 amount) public {\n      address user = msg.sender;\n      require(daiAddress.transferFrom(msg.sender, address(this), amount));\n      balancesDai[user] = balancesDai[user].add(amount);\n      emit DepositedDai(user, amount);\n  }\n\n  function sellDai(uint256 amount) public {\n      address user = msg.sender;\n      balancesDai[user] = balancesDai[user].sub(amount);\n      require(daiAddress.transfer(user, amount));\n      emit WithdrawnDai(user, amount);\n  }\n\n    function getDaiAddress() public returns(address){\n        return address(daiAddress);\n    }\n\n    function getPremium() public returns(uint256) {\n        return premium;\n    }\n\n}\n",
  "sourcePath": "/Users/roryoreilly/Desktop/programming/learning/eth-derivative-exchange/src/ethereum/contracts/Option.sol",
  "compiler": {
    "name": "solc",
    "version": "0.5.8+commit.23d335f2.Emscripten.clang"
  },
  "schemaVersion": "3.0.11",
  "updatedAt": "2019-07-16T03:48:40.463Z",
  "devdoc": {
    "methods": {}
  },
  "userdoc": {
    "methods": {}
  }
}